:100000000C942A000C9447000C9447000C94470071
:100010000C9447000C9447000C9447000C94470044
:100020000C9447000C9447000C9447000C94470034
:100030000C9447000C9447000C9447000C94470024
:100040000C9447000C9447000C9447000C9451000A
:100050000C94470011241FBECFE5D8E0DEBFCDBF12
:1000600010E0A0E6B0E0EAE8F8E002C005900D92EA
:10007000A237B107D9F722E0A2E7B0E001C01D9294
:10008000A737B207E1F70E94DF000C9443040C94F9
:10009000000082B985EC86BF089586B78B7B86BF4A
:1000A00008951F920F920FB60F9211248F939F9372
:1000B000EF93FF9381B1887F803611F48FEF09C0F1
:1000C00081B1887F803879F483B1909172009F3F2D
:1000D00019F48093720022C0E0917200F0E0EE58B3
:1000E000FE4F808312C081B1887F883BE9F483B1E1
:1000F000909172009F3F11F480937200E091720022
:10010000F0E0ED58FF4F808183B9809172008F5FDE
:1001100080937200809172008F3F19F086B7856CD2
:1001200005C086B7856802C086B7856486BFFF9123
:10013000EF919F918F910F900FBE0F901F90189588
:10014000CF93C82F8A3019F48DE00E94A0005D9BE8
:10015000FECFCCB980E090E0CF910895EF92FF926E
:100160000F931F93CF93DF937901FA01DF01A41B53
:10017000B50BAE15BF05E4F421916227A8E0B0E00D
:100180008B019C01369527951795079560FF0BC04D
:10019000C901B801C0E26C27C3E87C27C8EB8C27F3
:1001A000CDEE9C2702C0C901B801119749F7DECFF7
:1001B000DF91CF911F910F91FF90EF900895CF9312
:1001C000DF93CDB7DEB7DA950FB6F894DEBF0FBE7A
:1001D000CDBFB89A80B5866880BD87E689B910BC66
:1001E0008FB780688FBF789482E30E9449008AB1FC
:1001F00088618AB980E690E09093740280937302DC
:1002000082E48CB98BB38C6F8BBB8F988E010F57A8
:100210001F4F80E8D801E82F1D92EA95E9F7FE010B
:100220003196DF011D928A95E9F7BB24BA9430E03C
:1002300086E090E020E04EE6E42E40E0F42E50E828
:10024000A52ECC24C394D12C87992DC049B3B416C4
:10025000D9F3B9B2B1FCF8CFB0FC0FC0F801E20F8E
:10026000F11DA601082E01C0440F0A94EAF730815F
:10027000432B4083019731E010C0332371F0F80124
:10028000E20FF11DA601082E01C0440F0A94EAF7FF
:100290004095508145234083019797FFD5CF2F5F2D
:1002A00086E090E0D1CF222379F230E0A80167E622
:1002B00075E483E291E00E94AE002B013C017F9245
:1002C0006F925F926F93FF92EF920E947F01409234
:1002D0007300509274006092750070927600F8017D
:1002E0008A2D11928A95E9F70F900F900F900F9039
:1002F0000F900F9030E086E090E020E0A5CFA0E0E6
:10030000B0E0E5E8F1E00C941C04AE014B5F5F4FF8
:10031000FA0161917191AF01809173029091740221
:100320000E949501E2E00C943804ACE0B0E0EBE907
:10033000F1E00C940C046C017B018A01FC01178232
:100340001682838181FFBEC1CE0101964C01F60168
:100350009381F70193FD859193FF81917F0188231C
:1003600009F4ACC1853239F493FD859193FF8191F5
:100370007F01853229F4B60190E00E947E03E7CF29
:10038000512C312C20E02032A0F48B3269F030F473
:10039000803259F0833269F420612CC08D3239F0FB
:1003A000803339F4216026C02260246023C0286095
:1003B00021C027FD27C030ED380F3A3078F426FFF2
:1003C00006C0FAE05F9E300D1124532E13C08AE060
:1003D000389E300D1124332E20620CC08E3221F451
:1003E00026FD6CC1206406C08C3611F4206802C062
:1003F000883641F4F70193FD859193FF81917F0148
:100400008111C1CF982F9F7D9554933028F40C5FB4
:100410001F4F9FE399830DC0833631F0833771F00E
:10042000833509F05BC022C0F801808189830E5FAB
:100430001F4F44244394512C540115C03801F2E05D
:100440006F0E711CF801A080B18026FF03C0652DDE
:1004500070E002C06FEF7FEFC5012C870E9473032D
:100460002C0183012C852F77222E17C03801F2E052
:100470006F0E711CF801A080B18026FF03C0652DAE
:1004800070E002C06FEF7FEFC5012C870E94680308
:100490002C012C852068222E830123FC1BC0832D78
:1004A00090E048165906B0F4B60180E290E00E9450
:1004B0007E033A94F4CFF50127FC859127FE8191C4
:1004C0005F01B60190E00E947E0331103A94F1E0A2
:1004D0004F1A51084114510471F7E6C0843611F0E7
:1004E000893639F5F80127FF07C060817181828163
:1004F00093810C5F1F4F08C060817181072E000C33
:10050000880B990B0E5F1F4F2F76722E97FF09C035
:1005100090958095709561957F4F8F4F9F4F206884
:10052000722E2AE030E0A4010E94AE03A82EA81883
:1005300044C0853729F42F7EB22E2AE030E025C052
:10054000F22FF97FBF2E8F36C1F018F4883579F07D
:10055000B5C0803719F0883721F0B0C02F2F206147
:10056000B22EB4FE0DC08B2D8460B82E09C024FFBE
:100570000AC09F2F9660B92E06C028E030E005C063
:1005800020E130E002C020E132E0F801B7FE07C010
:1005900060817181828193810C5F1F4F06C06081F1
:1005A000718180E090E00E5F1F4FA4010E94AE03B6
:1005B000A82EA818FB2DFF777F2E76FE0BC0372DB7
:1005C0003E7FA51450F474FE0AC072FC08C0372D9B
:1005D0003E7E05C0BA2C372D03C0BA2C01C0B52C05
:1005E00034FF0DC0FE01EA0DF11D8081803311F44E
:1005F000397E09C032FF06C0B394B39404C0832F80
:10060000867809F0B39433FD13C030FF06C0B314ED
:1006100098F43A0C532C5B1810C0B31470F4B60164
:1006200080E290E03C870E947E03B3943C85F5CF46
:10063000B31418F43B1802C05A2C312C34FF12C0EA
:10064000B60180E390E03C870E947E033C8532FF48
:1006500017C031FD03C088E790E002C088E590E054
:10066000B6010CC0832F867859F031FF02C08BE2AF
:1006700001C080E237FD8DE2B60190E00E947E036A
:10068000A51438F4B60180E390E00E947E035A94EA
:10069000F7CFAA94F401EA0DF11D8081B60190E034
:1006A0000E947E03A110F5CF332009F450CEB6018D
:1006B00080E290E00E947E033A94F6CFF6018681B4
:1006C000978102C08FEF9FEF2C96E2E10C942804F3
:1006D000FC010590615070400110D8F7809590950D
:1006E0008E0F9F1F0895FC01615070400190011012
:1006F000D8F7809590958E0F9F1F08950F931F93A5
:10070000CF93DF93182F092FEB018B8181FD03C05D
:100710008FEF9FEF1EC082FF0FC02E813F818C8123
:100720009D812817390774F4E881F981CF0101967A
:1007300099838883108306C0E885F985812F099500
:10074000892B31F78E819F8101969F838E83812F24
:10075000902FDF91CF911F910F910895FA01AA2751
:10076000283051F1203181F1E8946F936E7F6E5FF4
:100770007F4F8F4F9F4FAF4FB1E03ED0B4E03CD0A2
:10078000670F781F891F9A1FA11D680F791F8A1F85
:10079000911DA11D6A0F711D811D911DA11D20D0EC
:1007A00009F468943F912AE0269F11243019305DA6
:1007B0003193DEF6CF010895462F4770405D419397
:1007C000B3E00FD0C9F7F6CF462F4F70405D4A33E4
:1007D00018F0495D31FD4052419302D0A9F7EACFAC
:1007E000B4E0A6959795879577956795BA95C9F7DB
:1007F00000976105710508959B01AC010A2E0694CE
:100800005795479537952795BA95C9F7620F731F86
:10081000841F951FA01D08952F923F924F925F92C3
:100820006F927F928F929F92AF92BF92CF92DF9200
:10083000EF92FF920F931F93CF93DF93CDB7DEB765
:10084000CA1BDB0B0FB6F894DEBF0FBECDBF0994F9
:100850002A88398848885F846E847D848C849B8450
:10086000AA84B984C884DF80EE80FD800C811B815E
:10087000AA81B981CE0FD11D0FB6F894DEBF0FBE8D
:0A088000CDBFED010895F894FFCFFD
:10088A000000000200000000A0000000000025781F
:02089A0000005C
:00000001FF
